:0400000007EF00F016
:0A0008007B820BED08F0B3EF0BF064
:10100000003738392F3435362A3132332D23303DED
:051010002B2569000022
:101016000600F2A811EF08F013EF08F01CEF08F035
:10102600F2A218EF08F01AEF08F01CEF08F0B1EC86
:101036000CF0F0A621EF08F023EF08F02CEF08F0F3
:10104600F0A028EF08F02AEF08F02CEF08F0AFEC3C
:101056000CF0F0A831EF08F033EF08F03CEF08F0A1
:10106600F0A238EF08F03AEF08F03CEF08F0ADECEC
:101076000CF0F2A641EF08F043EF08F05EEF08F03F
:10108600F2A048EF08F04AEF08F05EEF08F081A8FA
:101096004FEF08F051EF08F05EEF08F05A04D8A4BD
:1010A60057EF08F059EF08F05EEF08F0000E5A6EA1
:1010B600000E73EC0CF0F2A663EF08F065EF08F093
:1010C60080EF08F0F2A06AEF08F06CEF08F080EF0E
:1010D60008F081B871EF08F073EF08F080EF08F0C0
:1010E6005A50D8A479EF08F07BEF08F080EF08F0AB
:1010F600010E5A6E010E73EC0CF0F2A685EF08F0A5
:1011060087EF08F0A2EF08F0F2A08CEF08F08EEF60
:1011160008F0A2EF08F081AA93EF08F095EF08F027
:10112600A2EF08F05904D8A49BEF08F09DEF08F051
:10113600A2EF08F0000E596E000E66EC0CF0F2A657
:10114600A7EF08F0A9EF08F0C4EF08F0F2A0AEEFA1
:1011560008F0B0EF08F0C4EF08F081BAB5EF08F078
:10116600B7EF08F0C4EF08F05950D8A4BDEF08F067
:10117600BFEF08F0C4EF08F0010E596E010E66ECE1
:101186000CF0F2A6C9EF08F0CBEF08F0E6EF08F096
:10119600F2A0D0EF08F0D2EF08F0E6EF08F081AC4D
:1011A600D7EF08F0D9EF08F0E6EF08F05804D8A416
:1011B600DFEF08F0E1EF08F0E6EF08F0000E586EFA
:1011C600000E59EC0CF0F2A6EBEF08F0EDEF08F08C
:1011D60008EF09F0F2A0F2EF08F0F4EF08F008EFDC
:1011E60009F081BCF9EF08F0FBEF08F008EF09F011
:1011F6005850D8A401EF09F003EF09F008EF09F001
:10120600010E586E010E59EC0CF0F2A60DEF09F026
:101216000FEF09F02AEF09F0F2A014EF09F016EF2C
:1012260009F02AEF09F081AE1BEF09F01DEF09F076
:101236002AEF09F05704D8A423EF09F025EF09F0A7
:101246002AEF09F0000E576E000E4CEC0CF0F2A6D9
:101256002FEF09F031EF09F04CEF09F0F2A036EF6D
:1012660009F038EF09F04CEF09F081BE3DEF09F0C7
:101276003FEF09F04CEF09F05750D8A445EF09F0BD
:1012860047EF09F04CEF09F0010E576E010E4CECDA
:101296000CF09DAC51EF09F053EF09F05CEF09F04B
:1012A6009EAC58EF09F05AEF09F05CEF09F0B7EC85
:1012B6000CF0F2AA61EF09F063EF09F06CEF09F0A8
:1012C600F2A468EF09F06AEF09F06CEF09F09DEC03
:1012D6000CF09DA071EF09F073EF09F07CEF09F0B7
:1012E6009EA078EF09F07AEF09F07CEF09F097EC11
:1012F6000CF09DA281EF09F083EF09F08CEF09F065
:101306009EA288EF09F08AEF09F08CEF09F0A3ECB2
:101316000CF0A0A291EF09F093EF09F09CEF09F011
:10132600A1A298EF09F09AEF09F09CEF09F091EC71
:101336000CF09DA8A1EF09F0A3EF09F0ACEF09F0BE
:101346009EA8A8EF09F0AAEF09F0ACEF09F0A7EC08
:101356000CF09DAAB1EF09F0B3EF09F0BCEF09F06C
:101366009EAAB8EF09F0BAEF09F0BCEF09F0B9ECA4
:101376000CF09DA6C1EF09F0C3EF09F0CCEF09F020
:101386009EA6C8EF09F0CAEF09F0CCEF09F0A9EC68
:101396000CF0A0A6D1EF09F0D3EF09F0DCEF09F0CD
:1013A600A1A6D8EF09F0DAEF09F0DCEF09F0ABEC13
:1013B6000CF09DA4E1EF09F0E3EF09F0ECEF09F082
:1013C6009EA4E8EF09F0EAEF09F0ECEF09F0B5ECBE
:1013D6000CF0A0A0F1EF09F0F3EF09F0FCEF09F033
:1013E600A1A0F8EF09F0FAEF09F0FCEF09F0B3EC71
:1013F6000CF07B921100010E6F6E67506810D8B426
:1014060007EF0AF009EF0AF01AEF0AF067C0D9FFF2
:1014160068C0DAFFDF30E832E832070B696E070E84
:10142600696418EF0AF01AEF0AF07DEF0AF0000E71
:101436006F6E9EEF0AF067C0D9FF68C0DAFFDF3033
:10144600E832E832070B696E010E6A6E692A2EEFE2
:101456000AF0D8906A36692E2CEF0AF06A50FF0A15
:101466006B6E67C0D9FF68C0DAFFDF50070B6C6E82
:101476006C50020D4D0EF324D96E000EF420DA6E78
:10148600DECF6DF0DDCF6EF06DC0D9FF6EC0DAFF36
:101496006B50DF169EEF0AF067C0D9FF68C0DAFF0F
:1014A600DF30E832E832070B696E010E6A6E692A90
:1014B6005FEF0AF0D8906A36692E5DEF0AF067C0D2
:1014C600D9FF68C0DAFFDF50070B6B6E6B50020D59
:1014D6004D0EF324D96E000EF420DA6EDECF6CF0DA
:1014E600DDCF6DF06CC0D9FF6DC0DAFF6A50DF1238
:1014F6009EEF0AF067C0D9FF68C0DAFFDFBC86EF4F
:101506000AF089EF0AF0010E8AEF0AF0000E696E02
:101516006A6A6A50000AD8B493EF0AF01AEF0AF022
:101526006950000AD8B41EEF0AF0010AD8B44FEF8A
:101536000AF01AEF0AF06F501200010E706E675033
:101546006810D8B4A9EF0AF0ABEF0AF0BCEF0AF0C6
:1015560067C0D9FF68C0DAFFDF30E832E832070B30
:101566006A6E070E6A64BAEF0AF0BCEF0AF01FEF64
:101576000BF0000E706E34EF0BF067C0D9FF68C039
:10158600DAFFDF30E832E832070B6A6E010E6B6E67
:101596006A2AD0EF0AF0D8906B366A2ECEEF0AF0A0
:1015A6006B50FF0A6C6E67C0D9FF68C0DAFFDF5068
:1015B600070B6D6E6D50020D430EF324D96E000EAF
:1015C600F420DA6EDECF6EF0DDCF6FF06EC0D9FF9D
:1015D6006FC0DAFF6C50DF1634EF0BF067C0D9FF2F
:1015E60068C0DAFFDF30E832E832070B6A6E010EB8
:1015F6006B6E6A2A01EF0BF0D8906B366A2EFFEFFE
:101606000AF067C0D9FF68C0DAFFDF50070B6C6EBF
:101616006C50020D430EF324D96E000EF420DA6EE0
:10162600DECF6DF0DDCF6EF06DC0D9FF6EC0DAFF94
:101636006B50DF1234EF0BF069506A6E6B6A6B50B9
:10164600000AD8B429EF0BF0BCEF0AF06A50000A82
:10165600D8B4C0EF0AF0010AD8B4F1EF0AF0BCEF33
:101666000AF07050120071507210D8A43DEF0BF0C2
:101676003FEF0BF049EF0BF0090E736445EF0BF0EB
:1016860047EF0BF049EF0BF07CEF0BF071C067F002
:1016960072C068F07350010B696EA0EC0AF0746EAC
:1016A600010E7124676E000E7220686ED89073303A
:1016B600010B696EA0EC0AF0746E020E7124676E5F
:1016C600000E7220686E7340E8423F0B010B696E94
:1016D600A0EC0AF0746E030E7124676E000E722081
:1016E600686E7338E8461F0B010B696EA0EC0AF0B2
:1016F600746E120071507210D8B484EF0BF086EF3E
:101706000BF097EF0BF071C0D9FF72C0DAFFDF3034
:10171600E832E832070B736E070E736495EF0BF031
:1017260097EF0BF09BEF0BF0000E746EB1EF0BF022
:1017360071C067F072C068F0FEEC09F0746E71C09B
:1017460067F072C068F071C0D9FF72C0DAFF000E90
:10175600DFBE010E696EA0EC0AF0746E74501200C2
:10176600000EF66E190EF76E000EF86E00EE80F0A3
:1017760010EE14F00900F5CFEEFFE550E150FAE166
:10178600740EF66E180EF76E000EF86E00EE43F04D
:1017960010EE23F00900F5CFEEFFE550E150FAE137
:1017A6000001996B986B976B966B956B946B00EE3B
:1017B60001F0420EEE6AE806FDE17B907B920001A5
:1017C60016EF0CF075507610D8A4ECEF0BF0EEEF98
:1017D6000BF0F2EF0BF0000E776E14EF0CF075C005
:1017E60071F076C072F07DEC0BF0776E010E752409
:1017F600716E000E7620726E7DEC0BF0776E020E27
:101806007524716E000E7620726E7DEC0BF0776E8D
:10181600030E7524716E000E7620726E7DEC0BF051
:10182600776E775012008AEC0CF0000E7A6E610E1D
:10183600716E000E726E7AC073F036EC0BF0060E07
:10184600796E130E786EAE0EE82EFED7782EFCD784
:10185600792EFAD77A2A090E7A6434EF0CF036EF2D
:101866000CF01AEF0CF018EF0CF007EF00F0890FF0
:101876008A0F8B0F8C0F8D0F920F930F940F950F6E
:10188600960F01010101020A121A222A020A121AED
:011896000051
:10189800666EF2906650D8A454EF0CF056EF0CF038
:1018A80058EF0CF058EF0CF01200666EF29066508C
:1018B800D8A461EF0CF063EF0CF065EF0CF065EF66
:1018C8000CF01200666EF2906650D8A46EEF0CF021
:1018D80070EF0CF072EF0CF072EF0CF01200666E05
:1018E800F2906650D8A47BEF0CF07DEF0CF07FEF00
:1018F8000CF07FEF0CF01200800F810F820F830F26
:10190800840F323A030B131B232B333B610E756E86
:10191800000E766EE5EC0BF01200A1920C50B36E3F
:101928000BC0B2FF12009E901250CF6E11C0CEFFB6
:101938001200F2941650D76E15C0D6FF12009E9270
:101948003BC0CCFF12009D9812009E961200A196F3
:101958001200F0921200F0901200F2921200A19080
:0C19680012009E9412009E9C12001200BF
:020000040020DA
:08000000FFFFFFFFFFFFFFFF00
:020000040030CA
:0E000000FF020912FF8181FF0FC00FE00F40C9
:00000001FF
